:0400000012C0FECF5D
:10000400FDCFFCCFFBCFFACFF9CFF8CFF7CFF6CFA8
:10001400F5CFF4CFF3CFF2CFF1CFF0CFEFCFEECFD8
:10002400EDCFF894EE27ECBBE5BFF8E1A4B7A77FCA
:10003400A4BFF1BDE1BD8DE0A2E0ED938A95E9F79F
:1000440080E8A0E6ED938A95E9F7E0E0E3BBE4BB42
:10005400E5BBEFEDEDBFC0E800C0E0E8E6BDE0E0E1
:10006400E6BDEFE3E2BBE0E4E1BBE0E8E8B910E0C1
:10007400133034F4969A14D0969812D01F5FF8CFA8
:10008400859904C0969A0FD096980DD0849906C08D
:10009400969AA0EFB0E00AD0969805D0F1CFFFCFA2
:1000A400A8ECB0E003C0A8E7B0E000C0109639F0B7
:1000B40080ED97E00197F1F7A8951197C9F7089596
:00000001FF
