:040000000C9432002A
:100004000C9400000C9400000C9400000C9400006C
:100014000C9400000C9400000C9400000C9400005C
:100024000C9400000C9400000C9400000C9400004C
:100034000C9400000C9400000C9400000C9400003C
:100044000C9400000C9400000C9400000C9400002C
:1000540048656C6C6F0080C0020060025A000000AA
:10006400F894EE27ECBBF1E0FBBFEBBFE5BFF8E192
:10007400F1BDE1BD8DE0A2E0BB27ED938A95E9F7E0
:1000840080E098E0A0E6ED930197E9F7ECE5F0E075
:1000940085919591009761F0A591B5910590159082
:1000A400BF01F00105900D920197E1F7FB01F0CF3C
:1000B400EFE5EDBFE8E0EEBFC0E6D2E00C94C5008A
:1000C40091989298939894988BE18A95F1F7949AE1
:1000D4008BE18A95F1F7949891988BE18A95F1F7E1
:1000E400919A8BE18A95F1F7919892988BE18A9590
:1000F400F1F7EED0089524971A930A93A0E0B0E0A4
:100104000E94C6020E94EF01A0E0B0E080E89FE4F4
:100114000E941F02DF01CB01E0E2FCEB6EEB7CE40A
:100124000E946D020E94B801EA83FB836C837D8385
:1001340000E0CED010E01832F4F4E12FAA81BB81A4
:100144008C819D810E94BA02E1700E2F003011F45F
:10015400939801C0939A003011F0A1E301C0A0E389
:1001640064D085E38A95F1F7919A8BE18A95F1F74A
:1001740091981F5FE0CF85E38A95F1F7A9D01981A3
:10018400088126960895E0E0E8BBEFEFE7BBE0E0E6
:10019400E2BBEFEFE1BBE0E8E8B9E0E0E0BFA0E1FB
:1001A4006CD08EDFA8DF37D0A4E5B0E053D088DF71
:1001B40095D0A1DF93D0FBCFFFCFAA93E8B3EF7024
:1001C400AE2FE881E07FEA2BE8BB8BE08A95F1F75C
:1001D400C29A8BE18A95F1F7C2988BE18A95F1F77F
:1001E40075C0AA93A881E9DFE881E295E883A88134
:1001F400E4DF88EC90E00197F1F768C0AA93E88106
:10020400F0E0E05AFD4FE081A981AE0FEADF89807A
:10021400788022960895A2E066D0ACE0E2DFA1E007
:1002240062D0E0E07E2E8E2E0895AA93A881AA3093
:1002340011F08A1448F0E0E0EA937394A72DDEDF0E
:10024400A881AA3009F442C08394C09AA881C9DF66
:10025400C0983CC0BA93AA931A93E981FA81319663
:10026400E983FA833197E4911E2FE03019F0A12F2E
:10027400DCDFF3CF188123960895AA93E7B3E06FE8
:10028400E7BBBA9AB89AB99AC298C098C198A8809C
:10029400E881E058E0936202E881E054E09363026D
:1002A400A4E1B0E00E94810123D022D021D0A0E2B9
:1002B40084DF80E991E00197F1F7A8E292DFA4E0FE
:1002C40090DFA5E88EDFA6E08CDFA5DF21960895F8
:1002D400929A8BE18A95F1F792980895A4E6B0E09A
:1002E4000E94810198CF7DDFA3E0B0E00C948101EE
:1002F400A0E363DF80E991E00197F1F70895109698
:1003040039F080EA9FE00197F1F7A8951197C9F7B2
:100314000895552342F4503811F4E0FF04C0319697
:10032400691F791F6BF050E8572711F45F9373C06E
:100334005F3F31F0660F000C57956795752F089550
:100344005F9300200AF073C06CC050E8192E152288
:10035400880F991F9527550F879550E8072E05227A
:10036400660F771F7527550F67950895689401C028
:10037400E8945F93F2DF703818F07F3F08F44BC0C5
:1003840056E1571BAAF4519558300EF4593030F009
:10039400EFEFFFEF6FEF7FE777F91AC07727552369
:1003A400B9F0EE0FFF1F661F771F5A95D1F710C0E3
:1003B4007727583028F0EF2FF62F672F5850F9CFB2
:1003C400552331F076956795F795E7955A95D1F7CA
:1003D40000200AF4C5D05F910895689401C0E894A0
:1003E400309760407040B1F0002426F0772312F477
:1003F4000094B6D0172E7EE1112032F07A95EE0FDC
:10040400FF1F661F111CF9CFEF2FF62F612D5F938D
:100414008ADF5F910895EE27FF27662777275F918C
:100424000895EFEFFFEF6FE77FEF5F910895EFEF30
:10043400FFEF6FE77FE75F9108955F9386DF703882
:1004440051F3903841F301240894791F23F41CF3E9
:1004540000203AF3ECCF0F921F932F933F934F93C7
:10046400112722279927689FA0018F9F302D410DC6
:10047400591F6B9F300D411D591F8E9F27D0BF9F61
:1004840025D06A9F23D0BE9F1DD0AF9F1BD0AE9FA7
:10049400110D291F391F491F591FE32FF42F652FF1
:1004A400522F4F913F912F911F910F9066232AF065
:1004B400550FEE1FFF1F661F02C073954BF229DF15
:1004C4005F910895100D211D391F02C0200D311DAB
:1004D400491F591F08955F9338DF703821F41120A4
:1004E4000AF49FCFA4CF903809F495CF012408943F
:1004F400970B1BF4D4F30020F3CF792F1F932F9382
:100504003F934F931124112722273327442755273C
:1005140090E2AE17BF078607410730F0AE1BBF0B52
:10052400860B410B089401C08894551F221F331F6A
:10053400111CAA1FBB1F881F441F9A9551F7F9016C
:10054400612D4F913F912F911F91662332F0550FEA
:10055400EE1FFF1F661F7A9543F2DBDE5F9108955D
:10056400F09560957095E195FF4F6F4F7F4F08951B
:10057400EE230E2EFD01BC0131F076956795F795BB
:10058400E7950A94D1F70895129602D0BF01129705
:10059400119602D0FE2F1197E199FECFFF93FFB77A
:1005A400F894AEBBBFBBE09AEDB3FFBFFF910895D3
:00000001FF
