:0800000012C0FECFFDCFFCCFC2
:10000800FBCFFACFF9CFF8CFF7CFF6CFF5CFF4CFB4
:10001800F3CFF2CFF1CFF0CFEFCFEECFEDCFF89413
:10002800EE27ECBBF1E0FBBFEBBFE5BFF8E1F1BDAC
:10003800E1BD8DE0A2E0BB27ED938A95E9F780E06A
:1000480094E0A0E6ED930197E9F7EFE5EDBFE4E072
:10005800EEBFC0E6D1E017C05AD12497EC81FD81EC
:100068006E817F8184D0A0E0B0E080E89FE4AFD0CB
:10007800DF01CB01E0E5F9EA6BE27DE4F6D040D0A0
:1000880041D128960895E0E0E2BBEFEFE1BBE0E85C
:10009800E8B9E0E0E0BFA0E0B0E03ED1DF01CB018D
:1000A800DBDFF9CFFFCF552342F4503811F4E0FFDE
:1000B80004C03196691F791F6BF050E8572711F477
:1000C8005F9373C05F3F31F0660F000C57956795DB
:1000D800752F08955F9300200AF073C06CC050E834
:1000E800192E1522880F991F9527550F879550E8C7
:1000F800072E0522660F771F7527550F67950895F8
:10010800689401C0E8945F93F2DF703818F07F3F7D
:1001180008F44BC056E1571BAAF4519558300EF419
:10012800593030F0EFEFFFEF6FEF7FE777F91AC044
:1001380077275523B9F0EE0FFF1F661F771F5A95D3
:10014800D1F710C07727583028F0EF2FF62F672FF8
:100158005850F9CF552331F076956795F795E7957F
:100168005A95D1F700200AF4C5D05F910895689494
:1001780001C0E894309760407040B1F0002426F048
:10018800772312F40094B6D0172E7EE1112032F0B6
:100198007A95EE0FFF1F661F111CF9CFEF2FF62F70
:1001A800612D5F938ADF5F910895EE27FF27662709
:1001B80077275F910895EFEFFFEF6FE77FEF5F918C
:1001C8000895EFEFFFEF6FE77FE75F9108955F9383
:1001D80086DF703851F3903841F301240894791F71
:1001E80023F41CF300203AF3ECCF0F921F932F93C4
:1001F8003F934F93112722279927689FA0018F9F2C
:10020800302D410D591F6B9F300D411D591F8E9F79
:1002180027D0BF9F25D06A9F23D0BE9F1DD0AF9FF8
:100228001BD0AE9F110D291F391F491F591FE32FDE
:10023800F42F652F522F4F913F912F911F910F90BF
:1002480066232AF0550FEE1FFF1F661F02C0739525
:100258004BF229DF5F910895100D211D391F02C04F
:10026800200D311D491F591F08955F9338DF7038DD
:1002780021F411200AF49FCFA4CF903809F495CF28
:1002880001240894970B1BF4D4F30020F3CF792FA3
:100298001F932F933F934F9311241127222733271E
:1002A8004427552790E2AE17BF078607410730F06D
:1002B800AE1BBF0B860B410B089401C08894551FD9
:1002C800221F331F111CAA1FBB1F881F441F9A958A
:1002D80051F7F901612D4F913F912F911F9166239D
:1002E80032F0550FEE1FFF1F661F7A9543F2DBDED3
:1002F8005F910895F09560957095E195FF4F6F4F68
:100308007F4F0895E883F9836A837B8308959A93DE
:100318008A93BA93AA930895129602D0BF011297AE
:10032800119602D0FE2F1197E199FECFFF93FFB7E8
:10033800F894AEBBBFBBE09AEDB3FFBFFF91089541
:00000001FF
