:1000000017C0FECFFDCFFCCFFBCFFACFF9CFF8CF93
:10001000F7CFF6CFF5CFF4CFF3CFF2CFF1CFF0CFCC
:10002000EFCFEECFEDCF80C00200800026000000B1
:10003000F894EE27ECBBE5BFF8E1A4B7A77FA4BF17
:10004000F1BDE1BD8DE0A2E0ED938A95E9F780E88E
:10005000A0E6ED938A95E9F7E8E2F0E085919591C5
:10006000009761F0A591B59105901590BF01F00141
:1000700005900D920197E1F7FB01F0CFE0E0E3BBC3
:10008000E4BBE5BBEFEDEDBFC0E862C0C198C2982C
:10009000C098C398A6E4B0E018D1C39AA6E4B0E033
:1000A00014D1A4EFB1E011D1C398C198A6E4B0E097
:1000B0000CD1C19AA6E4B0E008D1C198C298A6E4D8
:1000C000B0E003D1C29AA6E4B0E0FFD0C298089590
:1000D00057D124971A93ED81FE816F817885AFEF18
:1000E000BFEF8FEF9FEF07D1DF01CB01E0E0F5E934
:1000F0006AEB7AE020D1E983FA836B837C8310E09A
:100100001832DCF4E12FA981BA818B819C81E7D080
:10011000E17011F4C09801C0C09AC09B02C0A1E375
:1001200001C0A0E383D0A6E4B0E0CFD0C19AA6E49A
:10013000B0E0CBD0C1981F5FE3CFA6E4B0E0C5D05C
:10014000C29AA6E4B0E0C1D0C29818812996089559
:10015000E0E8E6BDE0E0E6BDE8BBEFEFE7BBE0E0EE
:10016000E2BBEFEFE1BBE0E8E8B9E0E0E1B9A0E134
:1001700072D08CDFA0E0B0E008D1DF01CB01A8DFB6
:10018000A4EFB1E0A2D082DFA4EFB1E09ED0F2CF25
:10019000FFCFAA93E881E07111F0939A01C0939880
:1001A000E881E07211F0949A01C09498E881E074BB
:1001B00011F0959A01C09598E881E07811F0969A2F
:1001C00001C096988BE08A95F1F7929A8BE18A9517
:1001D000F1F792988BE18A95F1F775C0AA93A881FF
:1001E000D8DFE881E295E883A881D3DF88EC90E04E
:1001F0000197F1F768C0AA93E881E058E081A981EE
:10020000AE0FECDF5980488022960895A2E0E6DF29
:10021000A3E0B0E05AD0ACE0E1DFA1E0DFDFA3E093
:10022000B0E053D0E0E04E2E5E2E0895AA93A88150
:10023000AA3011F0571448F0E0E0EA934394A42D5B
:10024000DADFA881AA3009F43EC05394909AA881BD
:10025000C5DF909838C0AA938B9A8C9A8D9A8E9A03
:100260008A9A889A899A9298909891987880E88149
:10027000E058E0938200E881E054E0938300A4E139
:10028000B0E023D0A0E385DF80E991E00197F1F7AA
:10029000A0E37FDF80E991E00197F1F7A0E379DF48
:1002A00080E991E00197F1F7A0E273DF80E991E046
:1002B0000197F1F7A8E292DFA4E090DFA5E88EDFD6
:1002C000A6E08CDFA3DF21960895109639F080EA2E
:1002D0009FE00197F1F7A8951197C9F70895EE23CC
:1002E0000E2EFD01BC0131F076956795F795E795E7
:1002F0000A94D1F708953F934F935F9351E20A2EEA
:100300001B2E382F492FAA27BB278827991B09C0E6
:1003100020F4A00DB11D831F941F96958795B79566
:10032000A79577956795F795E7955A9589F75F9122
:100330004F913F9108953F934F935F930024112471
:100340004427552730E2AA0FBB1F881F991F001CA6
:10035000111C441F551F0E1A1F0A460B570B28F479
:100360000E0E1F1E461F571F01C0A1603A9559F778
:10037000FD01BC01D001CA015F914F913F910895E9
:100380009A938A93BA93AA930895129602D0BF01C2
:100390001297119602D0FE2F1197E199FECFFF938D
:1003A000FFB7F894AEBBE09AEDB3FFBFFF9108959D
:00000001FF
