:100000000C942A000C9400000C9400000C94000046
:100010000C9400000C9400000C9400000C94000060
:100020000C9400000C9400000C9400000C94000050
:100030000C9400000C9400000C9400000C94000040
:100040000C9400000C9400000C9400000C94000030
:100050000C940000F894EE27ECBBF1E0FBBFEBBF83
:10006000E5BFF8E1F1BDE1BD8DE0A2E0BB27ED9376
:100070008A95E9F780E098E0A0E6ED930197E9F72B
:10008000EFE5EDBFE8E0EEBFC0E6D2E00C94A600DD
:10009000C198C298C398C4988BE18A95F1F7C49A25
:1000A0008BE18A95F1F7C498C1988BE18A95F1F7B5
:1000B000C19A8BE18A95F1F7C198C2988BE18A9534
:1000C000F1F759D0089524971A930A93A0E0B0E06D
:1000D0000E94FC010E942501A0E0B0E080E89FE4BE
:1000E0000E945501DF01CB01E0E2FCEB6EEB7CE40A
:1000F0000E94A3010E94EE00EA83FB836C837D8350
:100100003AD000E010E00832E0E01E07BCF4E02F37
:10011000AA81BB818C819D810E94F001E17011F464
:10012000C39801C0C39A85E38A95F1F7C19A8BE120
:100130008A95F1F7C1980F5F1F4FE5CF85E38A9548
:10014000F1F719D01981088126960895EFEFEBBBDE
:10015000E0E0EABBE8BBEFEFE7BBE5BBE0E0E4BB18
:10016000E2BBEFEFE1BBE0E8E8B9E0E0E0BF90DF41
:10017000AADFFFCFFFCFC29A8BE18A95F1F7C29831
:100180000895552342F4503811F4E0FF04C031962D
:10019000691F791F6BF050E8572711F45F9373C004
:1001A0005F3F31F0660F000C57956795752F0895E6
:1001B0005F9300200AF073C06CC050E8192E15221E
:1001C000880F991F9527550F879550E8072E052210
:1001D000660F771F7527550F67950895689401C0BE
:1001E000E8945F93F2DF703818F07F3F08F44BC05B
:1001F00056E1571BAAF4519558300EF4593030F09F
:10020000EFEFFFEF6FEF7FE777F91AC077275523FE
:10021000B9F0EE0FFF1F661F771F5A95D1F710C078
:100220007727583028F0EF2FF62F672F5850F9CF47
:10023000552331F076956795F795E7955A95D1F75F
:1002400000200AF4C5D05F910895689401C0E89435
:10025000309760407040B1F0002426F0772312F40C
:100260000094B6D0172E7EE1112032F07A95EE0F71
:10027000FF1F661F111CF9CFEF2FF62F612D5F9323
:100280008ADF5F910895EE27FF27662777275F9122
:100290000895EFEFFFEF6FE77FEF5F910895EFEFC6
:1002A000FFEF6FE77FE75F9108955F9386DF703818
:1002B00051F3903841F301240894791F23F41CF37F
:1002C00000203AF3ECCF0F921F932F933F934F935D
:1002D000112722279927689FA0018F9F302D410D5C
:1002E000591F6B9F300D411D591F8E9F27D0BF9FF7
:1002F00025D06A9F23D0BE9F1DD0AF9F1BD0AE9F3D
:10030000110D291F391F491F591FE32FF42F652F86
:10031000522F4F913F912F911F910F9066232AF0FA
:10032000550FEE1FFF1F661F02C073954BF229DFAA
:100330005F910895100D211D391F02C0200D311D40
:10034000491F591F08955F9338DF703821F4112039
:100350000AF49FCFA4CF903809F495CF01240894D4
:10036000970B1BF4D4F30020F3CF792F1F932F9317
:100370003F934F93112411272227332744275527D2
:1003800090E2AE17BF078607410730F0AE1BBF0BE8
:10039000860B410B089401C08894551F221F331F00
:1003A000111CAA1FBB1F881F441F9A9551F7F90102
:1003B000612D4F913F912F911F91662332F0550F80
:1003C000EE1FFF1F661F7A9543F2DBDE5F910895F3
:1003D000F09560957095E195FF4F6F4F7F4F0895B1
:1003E000EE230E2EFD01BC0131F076956795F79551
:1003F000E7950A94D1F70895129602D0BF0112979B
:10040000119602D0FE2F1197E199FECFFF93FFB70F
:10041000F894AEBBBFBBE09AEDB3FFBFFF91089568
:00000001FF
