:0E00000018C0FECFFDCFFCCFFBCFFACFF9CF5B
:10000E00F8CFF7CFF6CFF5CFF4CFF3CFF2CFF1CFC6
:10001E00F0CFEFCFEECFEDCF503F134B040080006B
:10002E0026000000F894EE27ECBBE5BFF8E1A4B77C
:10003E00A77FA4BFF1BDE1BD8DE0A2E0ED938A954F
:10004E00E9F780E8A0E6ED938A95E9F7EAE2F0E0B9
:10005E0085919591009761F0A591B59105901590B8
:10006E00BF01F00105900D920197E1F7FB01F0CF72
:10007E00E0E0E3BBE4BBE5BBEFEDEDBFC0E849C09C
:10008E00939895989498929A92980895F9DF959AE4
:10009E009598949A949801D0089524971A9310E005
:1000AE00A0918000B0918100809182009091830098
:1000BE00EFE2F3EE6EEB71E4B4D06AD0E983FA832B
:1000CE006B837C8310E010329CF4E981E17011F4B3
:1000DE00939801C0939AE981FA816B817C81DBD080
:1000EE00E983FA836B837C83959A95981F5FEBCF98
:1000FE00939A959A9598939810E0173024F4959AC0
:10010E0095981F5FFACF949A949893981881259694
:10011E000895E0E8E6BDE0E0E6BDE8BBE7BBE2BB84
:10012E00EFE7E1BBE0E8E8B9E0E0E1B9A9DFAEDF77
:10013E00B4DFFFCFFFCF552342F4503811F4E0FF68
:10014E0004C03196691F791F6BF050E8572711F4E0
:10015E005F9355C05F3F31F0660F000C5795679562
:10016E00752F08955F9300200AF055C04EC050E8D9
:10017E00192E1522880F991F9527550F879550E830
:10018E00072E0522660F771F7527550F6795089561
:10019E00689401C0E8945F93F2DF703818F07F3FE7
:1001AE0008F42DC056E1571BAAF4519558300EF4A1
:1001BE00593030F0EFEFFFEF6FEF7FE777F91AC0AE
:1001CE0077275523B9F0EE0FFF1F661F771F5A953D
:1001DE00D1F710C07727583028F0EF2FF62F672F62
:1001EE005850F9CF552331F076956795F795E795E9
:1001FE005A95D1F700200AF446D05F910895EE2764
:10020E00FF27662777275F910895EFEFFFEF6FE7E0
:10021E007FEF5F910895EFEFFFEF6FE77FE75F915D
:10022E0008955F93A4DF703851F3903841F30124A1
:10023E000894791F23F41CF300203AF3ECCF3F937C
:10024E004F93112433274427552798E1330F441F2A
:10025E00551FEE1FFF1F661F30F43A0F4B1F581F1E
:10026E00E11DF11D611D9A9589F74F913F9166230E
:10027E002AF0550FEE1FFF1F661F02C07395E3F2A3
:10028E005ADF5F910895F09560957095E195FF4F57
:10029E006F4F7F4F089576956795F795E79508957B
:00000001FF
